:020000040000FA
:060000000A128A11FC2F18
:10000C00031083120313660D670DE8006808EE00F9
:10001C006E08031D122813281C280030E70000303E
:10002C00E6000030E5000030E40081286408E800B8
:10003C006508E9006608EA006708EB001F3003104A
:10004C00EB0CEA0CE90CE80CFF3E031D25286808B4
:10005C00EC006C08ED00E617FF30E405FF30E50519
:10006C00FF30E6050030E7059630EE02EE1F3F2824
:10007C0040285A286E08803A973E0318462847288D
:10008C004828132801300310E70CE60CE50CE40CAF
:10009C00FF3E031D49280130E8006808EE07031DE8
:1000AC00582859284828712820306E02031C5F28D4
:1000BC0060286C2813280130E8000310E40DE50DCE
:1000CC00E60DE70DE80B63280130EE026E08031D08
:1000DC007028712861286D080319752876288128E5
:1000EC00E409E509E609E709E40A0319E50A031935
:1000FC00E60A0319E70A080083120313AA002A0868
:10010C00031989288A289E28A91F8D288E289E28A5
:10011C002609AC002709AD002809AE002909AF005B
:10012C00AC0A0319AD0A0319AE0A0319AF0AA628C3
:10013C002908AF002808AE002708AD002608AC003F
:10014C002908280427042604031DAD28AE28B72847
:10015C000030A9000030A8000030A7000030A60035
:10016C003D299630F9007908AB00C9280130F90017
:10017C007908AB0701300310AF0CAE0CAD0CAC0C16
:10018C00FF3E031DC128FE302F05031DCE28CF28AE
:10019C00BC28EB280130F9007908AB070130AC071B
:1001AC00003003180130AD07003003180130AE07E2
:1001BC00003003180130AF0701300310AF0CAE0C48
:1001CC00AD0CAC0CFF3E031DE328FF302F05031DC7
:1001DC00F028F128D028FD280130AB020130F900BD
:1001EC000310AC0DAD0DAE0DAF0DF90BF628AE1B1B
:1001FC0000290129072902302B0203180629072997
:10020C00F2282B180A290B291329FF30AC05FF30D3
:10021C00AD057F30AE05FF30AF050310AB0C2B08DE
:10022C00F900FA01FB01FC0118300310F90DFA0D6D
:10023C00FB0DFC0DFF3E031D1B297908AC047A084D
:10024C00AD047B08AE047C08AF042A0803192F29DF
:10025C0030293529A91F332934293529AF172F08FF
:10026C00A9002E08A8002D08A7002C08A60008003D
:10027C0004308316031321020030031920020318E3
:10028C0048294929FD29200883120313A600831647
:10029C000313210883120313A700A801A90100303E
:1002AC000A128A1182200A128A1183120313290856
:1002BC00B7002808B6002708B5002608B40044305B
:1002CC00B3007F30B200C030B1000030B0000A1271
:1002DC008A11BE220A128A11831203133308D10029
:1002EC003208D0003108CF003008CE000130F700C2
:1002FC003130F6002D30F5000030F4008316031376
:10030C002608A2002708A3002808A4002908A50095
:10031C0002300310A20DA30DA40DA50DFF3E031D6D
:10032C008F292508F3002408F2002308F100220885
:10033C00F0000A128A1563270A128A1173088312B5
:10034C000313A9007208A8007108A7007008A60082
:10035C0001300A128A1182200A128A1183120313A5
:10036C002908CD002808CC002708CB002608CA0095
:10037C000A128A119B240A128A11831203134D0844
:10038C00E7004C08E6004B08E5004A08E4000A12B6
:10039C008A1106200A128A11831203136508831628
:1003AC000313A10083120313640883160313A00024
:1003BC00831203139712831603132018E629EA29D4
:1003CC00831203131716ED298312031317128316C6
:1003DC0003132108A3002008A2000310A30CA20CF5
:1003EC000310A30CA20C220883120313950008001F
:1003FC000430831603132102003003192002031862
:10040C00082A092ABD2A200883120313A600831682
:10041C000313210883120313A700A801A9010030BC
:10042C000A128A1182200A128A11831203132908D4
:10043C00B7002808B6002708B5002608B4004430D9
:10044C00B3007F30B200C030B1000030B0000A12EF
:10045C008A11BE220A128A11831203133308D100A7
:10046C003208D0003108CF003008CE000130F70040
:10047C003130F6002D30F5000030F40083160313F4
:10048C002608A2002708A3002808A4002908A50014
:10049C0002300310A20DA30DA40DA50DFF3E031DEC
:1004AC004F2A2508F3002408F2002308F100220843
:1004BC00F0000A128A1563270A128A117308831234
:1004CC000313A9007208A8007108A7007008A60001
:1004DC0001300A128A1182200A128A118312031324
:1004EC002908CD002808CC002708CB002608CA0014
:1004FC000A128A119B240A128A11831203134D08C3
:10050C00E7004C08E6004B08E5004A08E4000A1234
:10051C008A1106200A128A118312031365088316A6
:10052C000313A10083120313640883160313A000A2
:10053C00831203139D12831603132018A62AAA2ACA
:10054C00831203131D16AD2A831203131D12831677
:10055C0003132108A3002008A2000310A30CA20C73
:10056C000310A30CA20C2208831203139B00080097
:10057C008312031337088039B8003808C1003708D4
:10058C00B8003807B9003908C800B61FCE2ACF2AE0
:10059C00D02A481448080319D42AD52AE52A480A2F
:1005AC00031DD92ADA2AE22A0030B7000030B6003F
:1005BC000030B5000030B400B617B701ED2A00309A
:1005CC00B7000030B6000030B5000030B40033087E
:1005DC008039B8003808C1063308B8003807B900AC
:1005EC003908C900B21FFB2AFC2AFD2A4914490804
:1005FC000319012B022B122B490A031D062B072B67
:10060C000F2B0030B3000030B2000030B1000030CE
:10061C00B000B217B3011A2B0030B3000030B20097
:10062C000030B1000030B000330832043104300423
:10063C00031D212B222B3B2B0030B7000030B600C2
:10064C000030B5000030B4008030B6047F30B70401
:10065C004108B8003808B7043708B3003608B200B0
:10066C003508B1003408B0009A2C4808031D3F2B04
:10067C00402B492B0030B3000030B2000030B100E9
:10068C000030B0009A2C4808B800B9013908BB00FA
:10069C0049083802BA00031CBB033A087F3EC2006B
:1006AC003B080318013E003EC3003708C000360863
:1006BC00BF003508BE003408BD000030B700003064
:1006CC00B6000030B5000030B4000030C700003078
:1006DC00C6000030C5000030C400C901BF2B49085A
:1006EC000319792B7A2B9A2B0130B8000310BD0D0E
:1006FC00BE0DBF0DC00DB80B7C2B0130B800031024
:10070C00B40DB50DB60DB70DB80B852BC71F8F2BC0
:10071C00902B912B34140130B8000310C40DC50D6F
:10072C00C60DC70DB80B932B33084002031DA82B25
:10073C0032083F02031DA82B31083E02031DA82BD3
:10074C0030083D02031CAB2BAC2BBB2B47173008DE
:10075C00BD023108031C310FBE023208031C320FDC
:10076C00BF023308031C330FC0020130B800380835
:10077C00C9071A304902031CC42BC52B752B400822
:10078C003F043E043D040319CC2BCD2BEC2B44141D
:10079C00EC2B0130B8000310B40DB50DB60DB70D30
:1007AC00B80BD12BC71FDB2BDC2BDD2B341401300A
:1007BC00B8000310C40DC50DC60DC70DB80BDF2B4B
:1007CC00FF30C2070318C30AFF30C307B61FEF2B55
:1007DC00F02BCF2BC901C71FF42BF52B112CFF309D
:1007EC004405B800FF304505B900FF304605BA0096
:1007FC007F304705BB003B083A0439043804031921
:10080C00082C092C0C2CC901C90A112C341C0F2CD6
:10081C00102C112C092C49080319152C162C472CBB
:10082C000130B407003003180130B507003003184D
:10083C000130B607003003180130B707371C272CDE
:10084C00282C472C3408B8003508B9003608BA00F3
:10085C003708BB000130BC003B0DBB0CBA0CB90C0B
:10086C00B80CBC0B322C3B08B7003A08B600390860
:10087C00B5003808B4000130C2070318C30A0030B1
:10088C00C3074308803AFF0080307F02031D502CC1
:10089C00FF304202031C532C542C622CFF30831269
:1008AC000313C2000030C3000030B7000030B600A4
:1008BC000030B5000030B400831203134308803AB3
:1008CC00FF0080307F02031D6D2C013042020318A3
:1008DC00702C712C7E2C83120313C201C3010030C7
:1008EC00B7000030B6000030B5000030B400C101D4
:1008FC00831203134208B8003808C800481C872C20
:10090C00882C8A2CB6178E2C7F30B8003808B60588
:10091C004808B8000310380CB9003908B700410872
:10092C00B8003808B704322B0800831203134D08A3
:10093C008039D2005208D7004D08D2005207D3009C
:10094C005308DD00CC1FAB2CAC2CAD2C5D145D081A
:10095C000319B12CB22CC12C5D0A031DB62CB72C7B
:10096C00BF2C0030CD000030CC000030CB0000306C
:10097C00CA00CC17C92C0030CD000030CC000030A0
:10098C00CB000030CA0051088039D2005208D7067B
:10099C005108D2005207D3005308DC00D01FD72CCB
:1009AC00D82CD92C5C145C080319DD2CDE2CED2C16
:1009BC005C0A031DE22CE32CEB2C0030D100003040
:1009CC00D0000030CF000030CE00D017F52C003016
:1009DC00D1000030D0000030CF000030CE005C08D9
:1009EC000319F92CFA2CFF2C5D08031DFE2CFF2C8F
:1009FC00082D0030CD000030CC000030CB00003092
:100A0C00CA00FB2F4A08D2005208F00050080A1204
:100A1C008A155C260A128A11710883120313E300EB
:100A2C007008E2006208D200D301D401D501550848
:100A3C00DB005408DA005308D9005208D8006308C8
:100A4C00D200D301D401D5015508E1005408E000CF
:100A5C005308DF005208DE004B08D2005208F000A9
:100A6C004F080A128A155C260A128A117108831221
:100A7C000313E3007008E2006208D200D301D40132
:100A8C00D5015208D807530803110318013E031966
:100A9C00502DD907540803110318013E0319572D83
:100AAC00DA07550803110318013E03195E2DDB0705
:100ABC006308D200D301D401D5015208DE075308D4
:100ACC0003110318013E03196C2DDF0754080311A1
:100ADC000318013E0319732DE00755080311031881
:100AEC00013E03197A2DE1074C08D2005208F000A0
:100AFC004E080A128A155C260A128A117108831292
:100B0C000313E3007008E2006208D200D301D401A1
:100B1C00D5015208D807530803110318013E0319D5
:100B2C00982DD907540803110318013E03199F2D62
:100B3C00DA07550803110318013E0319A62DDB072C
:100B4C006308D200D301D401D5015208DE07530843
:100B5C0003110318013E0319B42DDF0754080311C8
:100B6C000318013E0319BB2DE007550803110318A8
:100B7C00013E0319C22DE1070830D2000310D80D35
:100B8C00D90DDA0DDB0DD20BC42D4B08D200520857
:100B9C00F0004E080A128A155C260A128A11710896
:100BAC0083120313E3007008E2006208D2006308AA
:100BBC00D300D401D5015208D807530803110318E8
:100BCC00013E0319EA2DD907540803110318013EFD
:100BDC000319F12DDA07550803110318013E031907
:100BEC00F82DDB074A08D2005208F0004F080A1211
:100BFC008A155C260A128A11710883120313E3000A
:100C0C007008E2006208D2006308D300D401D50159
:100C1C005208D807530803110318013E0319172E65
:100C2C00D907540803110318013E03191E2EDA07C5
:100C3C00550803110318013E0319252EDB07083054
:100C4C00D2000310D80DD90DDA0DDB0DD20B272EE7
:100C5C004A08D2005208F0004E080A128A155C2687
:100C6C000A128A11710883120313E3007008E20060
:100C7C006208D2006308D300D401D5015208D8070A
:100C8C00530803110318013E03194D2ED9075408BC
:100C9C0003110318013E0319542EDA0755080311EA
:100CAC000318013E03195B2EDB074B08D2005208D8
:100CBC00F00050080A128A155C260A128A11710873
:100CCC0083120313E3007008E2006208D200630889
:100CDC00D300D401D5015208DE07530803110318C1
:100CEC00013E03197A2EDF07540803110318013E45
:100CFC000319812EE007550803110318013E03194F
:100D0C00882EE1074C08D2005208F0004F080A1256
:100D1C008A155C260A128A11710883120313E300E8
:100D2C007008E2006208D2006308D300D401D50138
:100D3C005208DE07530803110318013E0319A72EAE
:100D4C00DF07540803110318013E0319AE2EE00708
:100D5C00550803110318013E0319B52EE1074C0881
:100D6C00D2005208F00050080A128A155C260A12AA
:100D7C008A11710883120313E3007008E200620801
:100D8C00D2006308D300D401D50108300310D20D72
:100D9C00D30DD40DD50DFF3E031DCC2E5208DE070E
:100DAC00530803110318013E0319DD2EDF07540805
:100DBC0003110318013E0319E42EE0075508031133
:100DCC000318013E0319EB2EE1075808D20059080D
:100DDC00D3005A08D4005B08D50018300310D50C8A
:100DEC00D40CD30CD20CFF3E031DF42E5208DE079C
:100DFC00530803110318013E0319052FDF0754088C
:100E0C0003110318013E03190C2FE00755080311B9
:100E1C000318013E0319132FE1070830D200031009
:100E2C00D80DD90DDA0DDB0DD20B152F5D085C0733
:100E3C00D200D301D30D5208823EE20053080318AE
:100E4C00013EFF3EE300472F0130D2000310DE0DC0
:100E5C00DF0DE00DE10DD20B2C2FDB1F362F372FC2
:100E6C00382F5E140130D2000310D80DD90DDA0DD5
:100E7C00DB0DD20B3A2FFF30E2070318E30AFF30E9
:100E8C00E307E01F4A2F4B2F2A2FDC01DB1F4F2FCC
:100E9C00502F6C2FFF305805D200FF305905D3006E
:100EAC00FF305A05D4007F305B05D500550854043B
:100EBC00530452040319632F642F672FDC01DC0ADF
:100ECC006C2F5E1C6A2F6B2F6C2F642F5C08031920
:100EDC00702F712FA22F0130DE0700300318013064
:100EEC00DF07003003180130E00700300318013031
:100EFC00E107611C822F832FA22F5E08D2005F08AE
:100F0C00D3006008D4006108D5000130D600550D1F
:100F1C00D50CD40CD30CD20CD60B8D2F5508E1006C
:100F2C005408E0005308DF005208DE000130E207ED
:100F3C000318E30A0030E3076308803AFF008030AF
:100F4C007F02031DAB2FFF306202031CAE2FAF2FAD
:100F5C00BA2F7F3083120313E1008030E0000030A1
:100F6C00DF000030DE00EF2F831203136308803A9A
:100F7C00FF0080307F02031DC52F01306202031871
:100F8C00C82FC92FD52F003083120313E100003076
:100F9C00E0000030DF000030DE00D701EF2F8312BD
:100FAC0003136208D2005208DD00FF30DE05FF306B
:100FBC00DF057F30E0050030E1055D1CE62FE72FF3
:100FCC00E82FE0175D08D2000310520CD300530831
:100FDC00E1005708D2005208E1046108CD00600816
:100FEC00CC005F08CB005E08CA00080083010A121F
:040FFC008A15832EA1
:101C8C00831203139715171512149210121583163D
:101C9C00031307110800831203139D151D1512144D
:101CAC00921012158316031387100800F800F40124
:101CBC00F5017008F200F3017208F6007308F700E2
:101CCC00781C692E6A2E702E7608F4070318F50A14
:101CDC007708F50701300310F60DF70DFF3E031DD5
:101CEC00712E0310F80C7808031D7D2E7E2E662EA7
:101CFC007508F1007408F00008000030831203131B
:101D0C00A9000030A8001330A7008830A6000A12E2
:101D1C008A15C5260A128A15003083120313A900EE
:101D2C000030A8001330A7008830A6000A128A15CC
:101D3C0014270A128A15003083160313A0000230F0
:101D4C00A1000A128A113E210A128A15003083164C
:101D5C000313A0000330A1000A128A11FE210A12FB
:101D6C008A150A128A1546260A128A150A128A152B
:101D7C0051260A128A15C12E0A128A1100288312C2
:101D8C0003132608F9002708FA002808FB00290885
:101D9C00FC0002300310F90DFA0DFB0DFC0DFF3E9B
:101DAC00031DD02E02300310F90DFA0DFB0DFC0DA6
:101DBC00FF3E031DD92E7C08F3007B08F2007A0845
:101DCC00F1007908F0000130F7003130F6002D30C9
:101DDC00F5000030F4000A128A1563270A128A15DE
:101DEC007008FF3E83160313920083120313290815
:101DFC0083160313A90083120313280883160313F5
:101E0C00A80083120313270883160313A700831259
:101E1C000313260883160313A6000800831203136A
:101E2C002608F9002708FA002808FB002908FC00FE
:101E3C0002300310F90DFA0DFB0DFC0DFF3E031DD6
:101E4C001F2F02300310F90DFA0DFB0DFC0DFF3E98
:101E5C00031D282F7C08F3007B08F2007A08F100A0
:101E6C007908F0000130F7003130F6002D30F50024
:101E7C000030F4000A128A1563270A128A157008BA
:101E8C00FF3E831603139200831203132908831653
:101E9C000313A90083120313280883160313A80045
:101EAC0083120313270883160313A700831203134B
:101EBC00260883160313A600080083120313A1013E
:101ECC00F31F692F6A2F772FF009F109F209F30933
:101EDC00F00A0319F10A0319F20A0319F30AA10112
:101EEC00A10AF71F7A2F7B2F8A2FF409F509F6091F
:101EFC00F709F40A0319F50A0319F60A0319F70A84
:101F0C000130F8007808A1060030A5000030A400CC
:101F1C000030A3000030A200730872047104700436
:101F2C000319992F9A2FE72FA001A00AAA2F01308D
:101F3C00F8000310F00DF10DF20DF30DF80B9F2FBF
:101F4C000130F8007808A007F31FAD2FAE2F9D2F9E
:101F5C000130F8000310A20DA30DA40DA50DF80B74
:101F6C00B02F73087702031DC52F72087602031D6C
:101F7C00C52F71087502031DC52F70087402031C50
:101F8C00C82FC92FD82F7008F4027108031C710FC9
:101F9C00F5027208031C720FF6027308031C730F10
:101FAC00F702221401300310F30CF20CF10CF00CBC
:101FBC00FF3E031DD92F0130A002031DE62FE72F92
:101FCC00AE2F21080319EB2FEC2FF72FA209A30931
:101FDC00A409A509A20A0319A30A0319A40A03193F
:101FEC00A50A2508F3002408F2002308F1002208B2
:041FFC00F0000800E9
:02400E007A3FF7
:00000001FF
