:020000040800F2
:1000000098040020F1140008D5020008D702000867
:10001000DB020008DF020008E30200080000000025
:10002000000000000000000000000000E7020008DF
:10003000E902000800000000EB020008ED020008E1
:100040000B1500080B1500080B1500080B15000810
:100050000B1500080B1500080B1500080B15000800
:100060000B1500080B1500080B1500080B150008F0
:100070000B1500080B1500080B1500080B150008E0
:100080000B1500080B1500080B1500080B150008D0
:100090000B1500080B1500080B1500080B150008C0
:1000A0000B1500080B1500080B1500080B150008B0
:1000B0000B1500080B1500080B1500080B150008A0
:1000C0000B1500080B1500080B1500080B15000890
:1000D0000B1500080B1500080B1500080B15000880
:1000E0000B1500080B1500080B1500080B15000870
:1000F0000B1500080B1500080B1500080B15000860
:100100000B1500080B1500080B1500080B1500084F
:100110000B1500080B1500080B1500080B1500083F
:100120000B1500080B1500080B1500080B1500082F
:100130000B1500080B1500080B1500080B1500081F
:100140000B1500080B1500080B1500080B1500080F
:100150000B1500080B1500080B1500080B150008FF
:100160000B1500080B1500080B1500080B150008EF
:100170000B1500080B1500080B1500080B150008DF
:100180000B1500080B150008DFF80CD001F0C2F9C0
:10019000004800479D0200089804002010B5012186
:1001A000880500F059FB0121080200F099FB0121AC
:1001B000084600F051FB07203E4908600320087103
:1001C0000020C8713C4800F001F900203B4908605C
:1001D0003B4888603B4848600020C86003200861B5
:1001E000002048614FF4806088614000C861800051
:1001F000086240114862400288620420C8620120FF
:1002000008630020486388632F4800F037FF01210E
:100210002D4800F06DFF00202C4908604860886080
:100220004FF4A060C860084600F08EFC002028490A
:10023000086001200871487100208860086103206F
:10024000087520484C3800F050FC0423012200219E
:100250001C484C3800F0CFFC04230222012119482D
:100260004C3800F0C8FC04230322022115484C3806
:1002700000F0C1FC012113484C3800F05CFD012165
:1002800010484C3800F062FD01210E484C3800F057
:1002900072FC0C484C3800F00AFD10BDFFF77EFFE1
:1002A00000BFFEE701B500BF0098411E0091002885
:1002B000FAD108BD000000200000024034000020F8
:1002C000080000204C2001401064024088000020FB
:1002D00070000020704700BFFEE700BFFEE700BFD0
:1002E000FEE700BFFEE770477047704770470000A9
:1002F00010B504468C48844208D10121084600F01C
:1003000000FB0021012000F0FCFA5EE087488442F7
:1003100008D10121022000F0F4FA0021022000F0AF
:10032000F0FA52E08248844208D10121042000F012
:10033000E8FA0021042000F0E4FA46E07D48844217
:1003400008D10121082000F0DCFA0021082000F08B
:10035000D8FA3AE07848844208D10121102000F010
:10036000D0FA0021102000F0CCFA2EE0734884422D
:1003700008D10121202000F0C4FA0021202000F043
:10038000C0FA22E06E48844208D10121402000F0EA
:10039000B8FA0021402000F0B4FA16E0694884421F
:1003A00008D10121802000F0ACFA0021802000F06B
:1003B000A8FA0AE06448844207D10121801500F0C0
:1003C000A0FA0021A01500F09CFA10BDF0B50A4675
:1003D00000210023002400BF3DE0012505FA01F3C0
:1003E000156805EA03049C4234D105684F000326D2
:1003F000BE40B543056015794E00B54006683543EB
:1004000005601579012D02D01579022D16D1856868
:100410004F000326BE40B543856055794E00B54078
:10042000866835438560456801268E40B543456042
:10043000456896798E40B6B235434560C5684F0031
:100440000326BE40B543C560D5794E00B540C668A9
:100450003543C560491C1029BFD3F0BD4FF6FF716D
:1004600001600021017141718171C171704708B54E
:100470004FF480320092009A0A430092009AC261BF
:10048000C161009AC261C2690092C269009208BD4E
:100490000246002013690B400BB1012000E0002050
:1004A00070470146086980B27047024600205369D0
:1004B0000B400BB1012000E0002070470146486965
:1004C00080B2704701837047418370470AB101834E
:1004D00000E0418370474161704742694A40426190
:1004E0007047F0B5002300244D07ED0E02FA05F326
:1004F000CE1000F1200555F826504E07F70E0F26B6
:10050000BE40B543CF1000F1200646F82750CE106C
:1005100000F1200555F8265045EA0304CE1000F1FD
:10052000200545F82640F0BD0000024000040240CE
:1005300000080240000C024000100240001402407B
:1005400000180240001C024000200240FA480068E7
:1005500040F00100F84908600020F74908310860C0
:10056000F5480068F5490840F3490860F448091D5A
:100570000860081F006820F48020091F0860002020
:10058000ED490C31086070470021EB4A921C117054
:1005900011460870704710B5014600220023002064
:1005A0004A11012A02D1E44C236808E0022A03D14F
:1005B000E14C7034236802E0DF4C7434236801F0AE
:1005C0001F02012494401C400CB1012000E00020D7
:1005D00010BD38B5002000900024002500BF312058
:1005E000FFF7D9FF05460098401C00900098B0F531
:1005F000A06F01D0002DF2D03120FFF7CCFF08B161
:10060000012400E00024204638BD01460020CA4AEB
:10061000106820F0F80040EAC10010607047C94936
:10062000086070470021C44A7032117011700128AF
:1006300002D004280AD104E00121BF4A70321170AF
:1006400005E00521BC4A7032117000E000BF00BF18
:100650007047BD490860704770B5049C41EA821537
:100660000126C6EB530645EA0645054345EA0465FF
:10067000B14E361D356070BDB249086670478201C3
:1006800042EA0172AC4B84331A607047AD49886608
:100690007047AC49C864704702460020A64B083337
:1006A000186820F0EC6042EA01031843A24B0833BB
:1006B00018607047024600209F4B0833186820F0EE
:1006C000784042EA010318439B4B08331860704797
:1006D00001460020984A0832106820F003000843C1
:1006E0001060704794480830006800F00C007047B4
:1006F00001460020904A0832106820F0F0000843BC
:1007000010607047014600208B4A0832106820F4C0
:10071000E05008431060704701460020864A0832C6
:10072000106820F4604040EAC10010607047F0B5E6
:100730000021002200240225002602237E4F0837D4
:100740003F6807F00C0121B1042905D0082937D1F1
:1007500005E07E4F076036E07D4F076033E0764F5F
:100760003F1D3F68C7F38056734F3F1D3F6807F03A
:100770003F036EB1764FB7FBF3F7DFF8BCC10CF166
:10078000040CDCF800C0CCF3881C07FB0CF40CE074
:100790006E4FB7FBF3F7DFF8A0C10CF1040CDCF8E7
:1007A00000C0CCF3881C07FB0CF4634F3F1D3F686F
:1007B000C7F301477F1C7D00B4FBF5F7076002E03B
:1007C000624F076000BF00BF5B4F08373F6807F00C
:1007D000F00109095F4F7A5C0768D7404760564FC0
:1007E00008373F6807F4E051890A5A4F7A5C476836
:1007F000D7408760504F08373F6807F46041490B86
:10080000544F7A5C4768D740C760F0BD002100F4C0
:100810004072B2F5407F0AD1474A0832116821F48C
:10082000F8114D4A02401143434A08321160424ACE
:1008300070321268C0F30B031A433F4B70331A60D7
:10084000704741494439086070473F494039086062
:10085000704742490860704739B1374A30321268F0
:100860000243354B30331A6006E0334A30321268A7
:100870008243314B30331A60704739B12E4A3432DB
:10088000126802432C4B34331A6006E02A4A343291
:1008900012688243284B34331A60704739B1264AB4
:1008A000383212680243244B38331A6006E0224A79
:1008B000383212688243204B38331A60704739B19E
:1008C0001D4A4032126802431B4B40331A6006E057
:1008D000194A403212688243174B40331A607047FE
:1008E00039B1154A443212680243134B44331A603B
:1008F00006E0114A4432126882430F4B44331A60B7
:10090000704739B10C4A1032126802430A4B103357
:100910001A6006E0084A103212688243064B103310
:100920001A607047E1B1044A143212680243024B64
:1009300014331A6019E0000000380240FFFFF6FE91
:100940001030002400004742800E47420024F4008B
:1009500000127A000E000020FFFCFF0F5C014742EE
:100960005B4A126882435A4B1A60704739B1584A41
:10097000121D12680243564B1B1D1A6006E0544AB2
:10098000121D12688243524B1B1D1A60704739B109
:100990004F4A0C32126802434D4B0C331A6006E08A
:1009A0004B4A0C3212688243494B0C331A60704731
:1009B00039B1474A103212680243454B10331A606E
:1009C00006E0434A103212688243414B10331A60EA
:1009D000704739B13E4A3C32126802433C4B3C33CB
:1009E0001A6006E03A4A3C3212688243384B3C3384
:1009F0001A60704739B1364A403212680243344BAC
:100A000040331A6006E0324A403212688243304B6B
:100A100040331A60704739B12D4A4432126802439C
:100A20002B4B44331A6006E0294A44321268824351
:100A3000274B44331A60704739B1254A4C3212684B
:100A40000243234B4C331A6006E0214A4C321268B1
:100A500082431F4B4C331A60704739B11C4A5032E5
:100A6000126802431A4B50331A6006E0184A50329B
:100A700012688243164B50331A60704739B1144ADA
:100A8000D21F12780243124BDB1F1A7006E0104A85
:100A9000D21F127882430E4BDB1F1A7070470C482E
:100AA0006030006840F0807009496031086070472C
:100AB00001460020064A083A12680A400AB101209D
:100AC00000E0002070470249891F0870704700004D
:100AD0001438024010B501210802FFF769FF002118
:100AE0004FF48070FFF764FF10BD30B50246002060
:100AF00000235068F84C20400D790C6844EA052426
:100B0000204350609068F54C2040D1E903542C43B9
:100B10008D682C434D7944EA450420439060D06AA7
:100B200020F470000C7D641EE4B2234340EA0350BD
:100B3000D06230BD00210160017141718160C160EE
:100B400001610121017570470021E54A1168E54AFC
:100B50001140D0E900231A4383681A43C3681A433B
:100B60001143E14AC2F8041370470021016041605B
:100B70008160C160704721B1826842F001028260E9
:100B800003E0826822F00102826070470A46002179
:100B90004168D64B194011434160704741628262FF
:100BA00070470A460021416821F01F01114341604E
:100BB000704738B1CA49096841F40001CA4AC2F80D
:100BC000041306E0C649096821F40001C64AC2F8C8
:100BD0000413704738B1C249096841F48001C24A20
:100BE000C2F8041306E0BE49096821F48001BE4A38
:100BF000C2F804137047F0B504460D4600200021EA
:100C0000092D11DDE068A5F10A0606EB4607072667
:100C100006FA07F18843A5F10A0606EB460603FA31
:100C200006F10843E0600CE0206905EB4507072664
:100C300006FA07F1884305EB450603FA06F1084377
:100C40002061072A0FDA606B561E06EB86071F2607
:100C500006FA07F18843561E06EB860605FA06F1EA
:100C60000843606322E00D2A0FDA206BD61F06EBE3
:100C700086071F2606FA07F18843D61F06EB86066D
:100C800005FA06F10843206310E0E06AA2F10D06C0
:100C900006EB86071F2606FA07F18843A2F10D0628
:100CA00006EB860605FA06F10843E062F0BD8168AE
:100CB00041F0804181607047014600208A6802F45B
:100CC00080020AB1012000E00020704721B1826853
:100CD00042F48062826003E0826822F48062826073
:100CE000704721B1826842F00202826003E08268AC
:100CF00022F002028260704710B50A4600210023EC
:100D0000416821F46041531E41EA4331416010BD06
:100D100021B1426842F40062426003E0426822F47A
:100D20000062426070470146C86C80B270476C48F0
:100D3000001D0068704721B1826842F480728260B1
:100D400003E0826822F480728260704721B1826879
:100D500042F40072826003E0826822F400728260D2
:100D6000704738B15E49096841F400515E4AC2F8E3
:100D7000041306E05A49096821F400515A4AC2F89E
:100D800004137047F0B504461546002000220026E3
:100D9000092911DDE068A1F10A0707EB470C0727D5
:100DA00007FA0CF29043A1F10A0707EB470703FA91
:100DB00007F21043E0600CE0206901EB410C0727CB
:100DC00007FA0CF2904301EB410703FA07F21043D4
:100DD0002061A06BC0F30156EF1C06F1010CA7EBDC
:100DE0000C0707EB870C1F2707FA0CF29043EF1C48
:100DF00006F1010CA7EB0C0707EB870701FA07F2D6
:100E00001043A063F0BD10B50A4600210023816B9A
:100E100021F44011531E41EA0351816310BD08B50E
:100E2000002300930090009B0B440093009B1A60EA
:100E300008BD0A460021816821F4702111438160B8
:100E400070470A460021816821F4401111438160F6
:100E50007047816841F4800181607047014600203D
:100E60008A6802F480020AB1012000E00020704785
:100E700021B1426842F48062426003E0426822F499
:100E800080624260704721B1426842F48052426001
:100E900003E0426822F480524260704708B502467F
:100EA00000200090009201F12800009B184400905F
:100EB0000098006880B208BD10B50B460021D9B279
:100EC000012404FA01F11AB144680C43446002E0C1
:100ED00044688C43446010BDFFFEFFFCFDF7FFC07B
:100EE00004230140E030FCFF00200140FFFD3FFFF4
:100EF0000246002013680B400BB1012000E00020E7
:100F00007047CA430260704770B502460020002354
:100F100000240B12556801268E4005EA0604156868
:100F20001D4015B10CB1012000E0002070BD002271
:100F30000A12D34303607047016821F00101016088
:100F40000021016041608160C16001612121416136
:100F5000DB49884204D13D21D94A103A91608CE0A6
:100F6000D7491831884205D14FF47461D44A103AF8
:100F7000916082E0D2493031884205D14FF474113A
:100F8000CF4A103A916078E0CD494831884205D186
:100F90004FF07461CA4A103A91606EE0C8496031FE
:100FA000884204D1C749C64A103AD16065E0C449B5
:100FB0007831884204D1C449C14A103AD1605CE01A
:100FC000BF499031884204D1C049BD4A103AD1602E
:100FD00053E0BB49A831884205D14FF03D51B84A92
:100FE000103AD16049E0BA49884204D13D21B84A5B
:100FF000083A116041E0B6491831884205D14FF4F2
:101000007461B34A083A116037E0B149303188421F
:1010100005D14FF47411AE4A083A11602DE0AC4985
:101020004831884205D14FF07461A94A083A1160ED
:1010300023E0A7496031884204D1A249A44A121F83
:1010400011601AE0A2497831884204D19E49A04A31
:10105000121F116011E09E499031884204D19B49D2
:101060009B4A121F116008E09949A831884204D1B7
:101070004FF03D51964A121F1160704710B5002283
:101080000268944B1A40CC680B6823434C69234395
:101090008C692343CC6923430C6A23434C6A234362
:1010A0008C6A23434C6B23438C6B23431A430260AB
:1010B000426922F00702D1E90B3423431A4342610B
:1010C0000B6943604B6883608B68C36010BD00216F
:1010D000016041608160C160016141618161C16104
:1010E000016241628162C162016341638163704751
:1010F00021B1026842F00102026003E0026822F0BE
:1011000001020260704721B1026842F400420260AD
:1011100003E0026822F400420260704721B10268D5
:1011200042F02002026003E0026822F02002026026
:101130007047416070470146486880B2704722B1ED
:10114000036843F40023036003E0036823F40023EF
:1011500003600161704721B1026842F4802202609D
:1011600003E0026822F48022026070470AB1016144
:1011700000E0C1607047014600200A6802F40022C6
:101180000AB1012000E000207047014600200A68F3
:1011900002F001020AB1012000E000207047014680
:1011A00000204A6902F03800704730B503460A460D
:1011B00000200024464DAB4202D24149103901E0E3
:1011C0004349103902F000550DB14C6800E00C683D
:1011D000414D2C4004EA02050DB1012000E0002041
:1011E00030BD02463A4B9A4202D23548103801E0EF
:1011F0003748103801F000531BB1374B0B40C36028
:1012000002E0354B0B408360704710B501F080035E
:101210004BB122B1436943F08003436103E043696A
:1012200023F08003436180290BD02AB1036801F0C9
:101230001E042343036004E0036801F01E04A3437B
:10124000036010BD70B50246002000240025204E2A
:10125000B24202D21A4B103B01E01D4B103B1F4E15
:101260000E4036B11E2606EAD124166806EA0405A9
:1012700002E0566906F0800501F000560EB15C6888
:1012800000E01C68144E344004EA010616B10DB1AA
:10129000012000E0002070BD02460D4B9A4202D2B0
:1012A0000748103801E00A48103801F000531BB11C
:1012B000094B0B40C36002E0074B0B408360704753
:1012C000106002403D000020400F002000003D2043
:1012D000106402403F801CF07D0F7D0F3C0F3C0FDF
:1012E0000CB50020019000907648006840F48030F2
:1012F0007449086000BF7348006800F40030009033
:101300000198401C0190009818B90198B0F5A06FA1
:10131000F1D16C48006800F4003010B10120009059
:1013200001E0002000900098012846D16548403037
:10133000006840F0805063494031086062480068AE
:1013400040F48040604908605E48083000685D49AC
:10135000083108600846006840F40040086008460C
:10136000006840F4A05008605848091F0860081F32
:10137000006840F08070091F086000BF5148006895
:1013800000F000700028F9D040F205605049086074
:101390004C480830006820F003004A4908310860D2
:1013A0000846006840F00200086000BF4548083069
:1013B000006800F00C000828F8D10CBD10B54548B5
:1013C000006840F47000434908603E48006840F0FF
:1013D00001003C49086000203A490831086039485A
:1013E00000683D490840374908603C48091D0860CD
:1013F000081F006820F48020091F08600020314980
:101400000C310860FFF76CFF4FF000603149803904
:10141000086010BD70B500200022022300240221C4
:10142000284D08352D6805F00C0020B1042806D0A1
:10143000082834D107E02A4D2A4E356033E02A4D82
:10144000284E35602FE01F4D2D1D2D68C5F38054AB
:101450001C4D2D1D2D6805F03F0154B1224DB5FBEB
:10146000F1F5184E361D3668C6F3881605FB06F2F0
:1014700009E01B4DB5FBF1F5124E361D3668C6F37B
:10148000881605FB06F20F4D2D1D2D68C5F301458D
:101490006D1C6B00B2FBF3F5124E356003E0104D8E
:1014A000104E356000BF00BF064D08352D68C5F3EE
:1014B00003150E4E705D0B4D2D68C540094E35600D
:1014C00070BD000000380240007000400854400722
:1014D000003C024088ED00E0FFFFF6FE10300024E3
:1014E0000024F4002000002000127A0024000020D4
:1014F0000648804706480047FEE7FEE7FEE7FEE7AE
:10150000FEE7FEE7FEE7FEE7FEE7FEE7BD130008A5
:1015100089010008064C074D06E0E06840F0010331
:1015200094E8070098471034AC42F6D3FEF730FE3B
:10153000581500087815000802E008C8121F08C1F5
:10154000002AFAD170477047002001E001C1121F44
:10155000002AFBD170470000781500080000002029
:101560003400000038150008AC15000834000020D5
:10157000640400004815000800000000000000009E
:10158000000000000000000000000102030401024E
:101590000304060708090000007A030A000000009F
:0C15A00000000000010203040607080917
:040000050800018965
:00000001FF
